:020000040805ED
:1001000048E0012061030508690305086B03050841
:100110006D0305086F030508710305080000000062
:10012000000000000000000000000000A10205081F
:100130007503050800000000FD020508AD21050853
:100140007B0305087B0305087B0305087B03050883
:100150007B0305087B0305087B0305087B03050873
:100160007B0305087B0305087B0305087B03050863
:100170007B0305087B0305087B030508CD140508F0
:100180007B0305087B0305087B0305087B03050843
:100190007B0305087B0305087B0305087B03050833
:1001A0007B0305087B0305087B0305087B03050823
:1001B0007B0305087B0305087B0305087B03050813
:1001C0007B0305087B0305087B0305087B03050803
:1001D0007B03050885230508C12305087B03050863
:1001E0007B0305087B0305087B0305087B030508E3
:1001F0007B0305087B0305087B0305087B030508D3
:100200007B0305087B0305087B0305087B030508C2
:100210007B0305087B030508492205087B030508C5
:100220007B0305087B0305087B0305087B030508A2
:100230007B0305087B0305087B0305087B03050892
:100240007B0305087B0305087B0305087B03050882
:100250007B0305087B030508151505087B030508C6
:100260007B0305087B0305087B0305087B03050862
:100270007B0305087B0305087B0305087B03050852
:100280007B0305087B030508DFF810D000F02EFD86
:100290000048004719400508AFF3008048E00120FE
:1002A0002C4B19680868B0E8F04F80F30988BFF359
:1002B0006F8F4FF0000080F311887047000000003E
:1002C00008480068006880F308884FF0000080F359
:1002D000148862B661B6BFF34F8FBFF36F8F00DF34
:1002E00000BF00BF08ED00E0DFF80C00016841F43A
:1002F00070010160704700BF88ED00E0EFF30980F6
:10030000BFF36F8F134B1A681EF0100F08BF20ED5C
:10031000108A20E9F04F106009B44FF0500080F3CC
:100320001188BFF34F8FBFF36F8F06F087FC4FF03C
:10033000000080F3118809BC19680868B0E8F04F24
:100340001EF0100F08BFB0EC108A80F30988BFF3CD
:100350006F8F704780000020EFF30580704700002A
:100360000648804706480047FEE7FEE7FEE7FEE74F
:10037000FEE7FEE7FEE7FEE7FEE7FEE7E121050810
:10038000890205082DE9F05F0546002092469B464C
:1003900088460646814640241BE02846414647469B
:1003A000224600F013FA53465A46C01A914110D320
:1003B00011461846224600F0FAF92D1A67EB01089B
:1003C0004F4622460120002100F0F1F917EB000909
:1003D0004E41201EA4F10104DFDC484631462A4686
:1003E0004346BDE8F09F40EA01039B0703D009E0C4
:1003F00008C9121F08C0042AFAD203E011F8013B11
:1004000000F8013B521EF9D27047D2B201E000F869
:10041000012B491EFBD270470022F6E710B51346A8
:100420000A4604461946FFF7F0FF204610BD30B5D6
:1004300005462A460B4612F8010B13F8014B08B18A
:10044000A042F8D01CB1002802D06D1CF1E728466C
:1004500030BD10B5044604E00B7800F8013B03B151
:10046000491C521EF8D2204610BD421C10F8011B38
:100470000029FBD1801A704710B5002200E0521C01
:10048000835C8C5CA34201D1002BF8D1D8B2E1B2DD
:10049000401A10BD30B504460020034600E05B1C46
:1004A000934203D2E05CCD5C401BF8D030BD0346E4
:1004B00011F8012B00F8012B002AF9D118467047DA
:1004C0000FB400B58DB010A909900B9000914FF0BA
:1004D000FF300A9000200C900548069005480790D0
:1004E0006A4609A80F9900F095F90DB05DF814FB64
:1004F000310805084F0805082DE9FF5F1D464FF03C
:10050000FF3BD5E9014691465F464FF00008A969D7
:100510007F1C01988847296A824688470028F6D1BF
:10052000BAF1FF3F0CD024F4C064002E19DD600640
:1005300014D5BAF12B0F09D0BAF12D0F0ED103E06B
:10054000584604B0BDE8F09F44F48064A9697F1C5C
:1005500001988847761E8246002E02DDBAF1300FE0
:1005600003D0B9F1000F26D032E0A969761E44F419
:1005700000747F1C019888478246002E05DDBAF181
:10058000780F06D0BAF1580F03D0B9F1000F10D090
:100590001EE0B9F1000F02D0B9F1100F18D1A9690E
:1005A000761E24F400747F1C019888478246102030
:1005B00002E0082000E00A20814609E008FB090863
:1005C000A969761E44F400747F1C0198884782460E
:1005D000002E05DD4946504600F008F90028EDDA06
:1005E000E96901988847A00502D46FF00100A8E7E7
:1005F000E00725D1600613D5600502D5C8F10000DB
:1006000000E0404629680A1D2A600968220501D5D4
:10061000087015E0220701D5088011E008600FE09E
:100620002868011D29600068210502D580F8008036
:1006300006E0210702D5A0F8008001E0C0F80080A4
:1006400038467EE72DE9FF5FD2E901A74FF00008A9
:10065000916999461446DDF838B0464601988847B6
:10066000054659EA0B0005D009E0A169761C0198FE
:1006700088470546216A284688470028F5D1681C26
:1006800003D05FEACA7005D015E04FF0FF3004B028
:10069000BDE8F09F2068011D2160D0F800800AE0CD
:1006A0005FEACA7001D108F8015BA169761C7F1E60
:1006B000019888470546002F1ADD681C18D0B9F14B
:1006C000000F0DD0E81705EBD060421120F01F009D
:1006D00059F822102A1A012090400142E0D107E087
:1006E000BBF1000FDCD1216A284688470028D7D00B
:1006F000E16901988847BBF1000F07D1002E05DDA5
:100700005FEACA7002D1002188F80010A068B842E0
:1007100003DDBBF1000F03D017B16FF00100B6E7A6
:100720003046B4E700F0004230F000400AD0C10D7E
:1007300001F56071C0F3160042EA0151C20840079A
:100740001143704700200146704701F0004330B468
:1007500021F0004150EA010206D00A0DA2F56072B4
:10076000C1F31301002A02DC30BC00207047440FA3
:1007700044EAC104C100E01830BC00EBC25000F0F4
:10078000C5B830B50B46014600202022012409E0FF
:1007900021FA02F59D4205D303FA02F5491B04FA3A
:1007A00002F52844151EA2F10102F1DC30BD202A19
:1007B00004DB203A00FA02F1002070479140C2F1B8
:1007C000200320FA03F3194390407047202A04DBEA
:1007D000203A21FA02F00021704721FA02F3D040BA
:1007E000C2F1200291400843194670473A2800D2CE
:1007F000303820F02002412A01D3A2F1370088428C
:1008000001D34FF0FF307047026811441378016044
:1008100018467047D16004495161044911620021B2
:100820001161114600F08CBA09080508350D05085C
:10083000426842B1016811F8013B23B1521EC0E980
:100840000012184670470121C160881E7047426837
:100850005AB1C368016843B983688B4205D0491E09
:10086000521CC0E90012002070474FF0FF30704763
:100870000FB4002300B589B00CA900910B996FF05B
:100880000042CB601E4B06931E4B07930423CDE919
:1008900001321D4A089202466B46002000F07CFCA3
:1008A00009B05DF814FB70B586B006464FF0FF3016
:1008B0000091CDE90101002015460C460490324616
:1008C000694604A8FFF7D4FF02460498211825B111
:1008D00008B1084600E020462860049800280DD0A2
:1008E000002A02DD0098884208D0081B0094CDE958
:1008F00001043246694604A8FFF7BAFF06B070BD8E
:10090000310805084F080508350D05080029A8BF5E
:100910007047401C490008BF20F00100704710B428
:10092000B0FA80FC00FA0CF050EA010404BF10BCDD
:10093000704749B1CCF1200421FA04F411FA0CF10A
:1009400018BF012121430843A3EB0C01CB1D4FEA43
:1009500000614FEA102042BF002010BC704700EB3E
:10096000C35010440029A4BF10BC7047401C49006C
:1009700008BF20F0010010BC70472DE9FE4F8046F3
:1009800081EA0300C00F0C46009021F0004123F0E3
:100990000045B8EB0200A94105D2404621469046E9
:1009A0001C460B46024623F00040104347D0270D5B
:1009B000C7F30A00C3F30A510290401A019040287D
:1009C0006BDAC3F3130040F4801B0098924620B109
:1009D0000023D2EB030A63EB0B0B01985946C0F1DD
:1009E00040025046FFF7E3FE06460D465046594684
:1009F000019A00F08DF910EB08006141002487EAAC
:100A0000115284EAE7731A4340D0009A62B3019A04
:100A1000012A4FEA075215DC001B61EB02014FF07F
:100A2000004202EA0752CDE90042001C41F5801164
:100A300032462B4600F0DBFC03B0BDE8F08F4046A9
:100A40002146F9E7001B61EB0201001C41F5801310
:100A500000185B412018A2F5001747EB030140EA9C
:100A6000D570B6196D4111E06D084FEA360645EABA
:100A7000C0754FEA0752001B61EB0201001C41F5F3
:100A8000801149084FEA30000019514132462B4687
:100A900003B0BDE8F04F00F09BBC0098012240007D
:100AA0000023D0EB020263EBE073009821464FEA8B
:100AB000E074B8EB000061EB0401E9E783F0004368
:100AC0005BE781F0004158E72DE9FE4F81EA03041E
:100AD00004F0004421F0004100944FF0000B23F09B
:100AE000004350EA01045ED052EA03045BD0C3F332
:100AF0000A54C1F30A552C44A4F2F3340194A0FB28
:100B00000254C1F3130141F48011C3F3130343F4FE
:100B1000801301FB024400FB034E840A970A44EA57
:100B2000815447EA8357A4FB076802958D0A05FBA9
:100B300007854FEA932C04FB0C542705029D4FEACE
:100B4000065847EA1637B5EB08056EEB070C870E1B
:100B5000920E47EA811742EA8312A7FB0201B6EB25
:100B60000B0164EB00042B0D43EA0C335E1844EBDD
:100B70001C50DA465146E7FB0201C5F313044FEA65
:100B80000B3343EA14534FEA0432019C43EA060351
:100B9000A4F10C040294009CCDE900B400F027FC01
:100BA00003B0BDE8F08F00200146F9E72DE9F04DD4
:100BB00081EA030404F0004B21F0004514464FF095
:100BC000000A23F0004150EA050220D054EA010255
:100BD0001DD0C5F30A570246C5F31303C1F3130032
:100BE000C1F30A5640F4801543F48013A7EB0608BE
:100BF000101BD64608F2FD3873EB050002D308F14E
:100C0000010801E092185B41B8F1000F03DA0020FF
:100C10000146BDE8F08D00204FF480110646844661
:100C20000EE0171B73EB050705D3121B63EB0503DF
:100C300006434CEA010C49084FEA300092185B4128
:100C400050EA0107EDD152EA030012D082EA040013
:100C500083EA0501084305D0101BAB4106D20122EF
:100C6000002306E000224FF0004302E06FF0010293
:100C700053101AEB06004CEB085110EB0A0041EB45
:100C80000B01BDE8F04D00F0A3BBC1F30A52C1F364
:100C9000130140F2FF3341F480119A4202DA00203E
:100CA0000146704740F233439A42A2F2334202DCDB
:100CB0005242FFF78BBDFFF77ABD000030B5041E2E
:100CC00071F1000404DB4FF00044404264EB010189
:100CD000141E73F1000405DB1C464FF00043524222
:100CE00063EB0403994208BF904230BD064C074DA8
:100CF00006E0E06840F0010394E8070098471034EC
:100D0000AC42F6D3FFF7C4FA54BA070874BA07081E
:100D1000202A06DBCB17203A41FA02F043EAE073BF
:100D200006E041FA02F3D040C2F1200291400843AC
:100D300019467047C0B24FF4F05100F0A7BB000055
:100D40002DE9F34F8BB04FF0000801F10C000C4679
:100D50004FF0010B46460DF1080A0190626901212E
:100D600001989047051E2DD0252D2CD0216A88474B
:100D7000C0B16269012101989047216A8847002823
:100D8000F7D1411E62690198904700E0761CA16985
:100D90000B988847216A88470028F7D1E1690B98AA
:100DA0008847DBE7A1690B9888470746A84201D12D
:100DB000761CD3E7E1690B9888477F1C02D1B8F114
:100DC000000F6FD047E1002762693D463946019820
:100DD00090472A2804D16269012101989047012592
:100DE000DFF888926269012101989047A0F13001F3
:100DF0000A290AD24F45E5DC07EB870100EB4107E2
:100E0000303FDFD445F01005ECE7E90601D46FF080
:100E100000476C280AD04C2814D0682815D06A28BE
:100E20000DD074281CD07A281AD01DE062690121E7
:100E3000019890476C2802D045F0040514E045F075
:100E400002050DE045F020050AE0626901210198E4
:100E50009047682802D045F0080505E045F4006594
:100E60006269012101989047C4E9015765283DD086
:100E700019DC58287AD00CDC452837D004DC25282A
:100E800026D0412831D131E046282FD047282CD117
:100E90002CE05B2877D0612828D063287CD0642898
:100EA00023D15AE0D1E06F2848D008DC66281DD055
:100EB00067281BD0692821D06E2816D127E070281A
:100EC00045D0732868D0752847D078280DD14DE0DB
:100ED000A1690B988847054625283FF469AFE16969
:100EE0000B9888476D1C3FF46AAFB4E023466A460E
:100EF0006FF001000B9900F04FF99FE045F04000C2
:100F00006060A80723464FF0000236D43EE0E807B1
:100F10007FF447AF2068011D21600068290501D5D5
:100F200006701BE7290701D5068017E7A90703D537
:100F3000F117C0E9006111E706600FE745F04000D6
:100F40006060A80723464FF0080216D41EE040F662
:100F50000E0125EA0100606016E045F04000606087
:100F6000A80723464FF00A0207D40FE045F04000DF
:100F70006060A80708D5234610226FF001000B9986
:100F8000AFF300805AE007E0234610226FF0010023
:100F90000B99FFF7B1FA51E04FF000094F464B466D
:100FA000632802D05B2807D041E02079C00601D435
:100FB0000120A06001273AE0626901210198904771
:100FC0005E2805D14FF001096269494601989047B2
:100FD000216939B900210A46534643F82120491CAA
:100FE0000829FADBB0B3216969B9C11700EBD162F6
:100FF00053110AEB830122F01F02821A01200B68B1
:10100000904003430B6062690121019890475D287D
:10101000E8D1B9F1000F09D00020514651F8202045
:10102000D24341F82020401C0828F7DB02AB2246BF
:1010300000976FF001000B99FFF704FB00280CDA12
:10104000401C08D1BBF1000F05D04FF0FF300DB0B0
:10105000BDE8F08FFFE74046F9E7E90701D108F165
:10106000010806444FF0000B78E60000CCCCCC0C15
:101070002DE9FF4F087883B09946FF2805D0491C19
:101080002D2804D00024002008E000200BE00124DB
:10109000F9E700EB800003EB4000491C0B78FF2BC5
:1010A000F7D104B1404200230293147819461D463B
:1010B0002D2C01D02B2C04D1521C2D2C13D000240C
:1010C0000294AA461478FF2C0FD00A25A3FB0578BA
:1010D00001FB05814FF0000C03FB0C11521CE319BE
:1010E0004AEB0101EEE70124EAE7814453EA0100FB
:1010F00002D019F5C87F06DA03980021C0E9001173
:1011000007B0BDE8F08F0025AE4E2F46DFF8B8825D
:10111000184600F0CFF9CDE90001B9F1000002DA7C
:10112000C9F1000400E004460023A74A1AEB030BB0
:1011300042EB045A12E0E00707D02A46334638460D
:101140004146FFF7C1FC074688462A46334610460B
:101150001946FFF7B9FC05460E466410002CEAD18B
:10116000DDE90001B9F1000F5A46534606DAFFF7F0
:101170001DFD3A464346FFF719FD05E0FFF7A4FCC5
:101180003A464346FFF7A0FC029A0AB181F00041BB
:10119000039AC2E90001B3E72DE9FF4F1F468DB066
:1011A000D7E901464FF0FF382E2045464FF00009A1
:1011B0000B90B9696D1C0E988847396A824688473A
:1011C0000028F6D1BAF1FF3F0AD024F4D064002EF3
:1011D00011DDBAF12B0F08D0BAF12D0F0BD102E0BF
:1011E000404611B08DE744F48064B9696D1C0E98D7
:1011F00088478246761E6946600501D52D2000E0AD
:101200002B208DF8000001F1010B0DF1200809E001
:10121000B9696D1C0E98884782460F9844F4007493
:10122000761E0560002E02DDBAF1300FF0D00B996A
:101230008A453ED144F0800406E00F99681CA9F16C
:10124000010944F400740860B9696D1C761E0E989B
:10125000884782463028F0D02BE00B998A4505D18B
:10126000200603D444F08004761E18E0504601F0B6
:101270002DFB08B30DF11301761E44F400748B4569
:1012800008D2AAF130000BF8010B200607D5A9F10E
:10129000010003E0200602D409F101008146A00507
:1012A00002D50F99681C0860B9696D1C0E988847B3
:1012B0008246002ED1DC53E0002E51DDBAF1650FDD
:1012C00002D0BAF1450F4BD1A00549D5B9696D1CC3
:1012D00024F44074761E0E9888478246002E0CDD5A
:1012E0002B2804D0BAF12D0F07D144F48074B969CA
:1012F0006D1C0E9888478246761EE00501D52D218B
:1013000000E02B2108F8011BCDF82C8021E00DF125
:101310002901761E44F4007488450CD2AAF13000ED
:1013200010F0FF0088F8000002D10B99884509D918
:1013300008F1010806E0E00501D5244801E042F289
:101340000F708146B9696D1C0E98884782460F98C8
:101350000560002E04DD504601F0B8FA0028D6D111
:10136000F9690E988847FF208BF8000088F8000084
:101370000020069007904B466A4608A906A8FFF78A
:1013800077FEA00502D46FF001002AE714F0240FC5
:101390000AD0E00714D1DDE906123868031D3B606E
:1013A0000068C0E900120BE0DDE90601FFF7CDF9A6
:1013B0000146E00704D13868021D3A600068016008
:1013C00028460EE7000014400000F03FF1D8FFFF70
:1013D00010B5141E73F1000408DA401C41F100013D
:1013E00092185B411A4301D120F0010010BD2DE994
:1013F000F04D92469B4611B1B1FA81F202E0B0FA8B
:1014000080F220329046FFF7D2F904460F4640EAB8
:101410000A0041EA0B0153465A46084313D01146CD
:1014200053EA010019D0C8F140025046FFF7CEF947
:1014300005460E46504659464246FFF7B8F908435E
:1014400005D0012004E020463946BDE8F08D00209B
:10145000054346EAE0762C4337430A986305E40ADD
:10146000A0EB08000022FD0A44EA47540A3002D5E6
:1014700000200146E9E7010510196941DDE9084549
:1014800000196941BDE8F04DA2E700007F2801D9AD
:10149000002208E0064A02EB5002C007127800D191
:1014A000120902F00F02012090400840704700002E
:1014B0007CB807080EB540F2334202920022CDE913
:1014C00000221346FFF793FF03B000BD08B50D4996
:1014D0000D4800F083F8012813D169460B480068D5
:1014E00006F086F9009838B14FF08050084908603E
:1014F000BFF34F8FBFF36F8F0249034800F048F8E6
:1015000000BF08BD2080002070600240380000202D
:1015100004ED00E008B50D490D4800F05FF8012822
:1015200013D169460B48006806F062F9009838B19B
:101530004FF0805008490860BFF34F8FBFF36F8FA3
:101540000249034800F024F800BF08BD00800028CD
:10155000B86402403000002004ED00E00246094B70
:101560009A4201D2084801E00648103801F00053C1
:101570001BB1064B0B40C36002E0044B0B40836081
:101580007047000010640240006002407D0F7D0F34
:101590000246094B9A4201D2084801E00648103839
:1015A00001F000531BB1064B0B40C36002E0044B3B
:1015B0000B408360704700001064024000600240EE
:1015C0007D0F7D0F21B1026842F00102026003E04D
:1015D000026822F0010202607047000070B5024606
:1015E000002000240025124EB24201D2114B01E02E
:1015F0000F4B103B104E0E4036B11E2606EAD1248A
:10160000166806EA040502E0566906F0800501F056
:1016100000560EB15C6800E01C68084E344004EAD5
:10162000010616B10DB1012000E0002070BD0000E0
:1016300010640240006002403C0F3C0F7D0F7D0FA4
:1016400010B501F080034BB122B1436943F0800330
:10165000436103E0436923F08003436180290BD099
:101660002AB1036801F01E042343036004E0036809
:1016700001F01E04A343036010BD000010B500225A
:101680000268134B1A40CC680B6823434C69234310
:101690008C692343CC6923430C6A23434C6A23435C
:1016A0008C6A23434C6B23438C6B23431A430260A5
:1016B000426922F00702D1E90B3423431A43426105
:1016C0000B6943604B6883608B68C36010BD00008A
:1016D0003F801CF00021016041608160C1600161B8
:1016E00041618161C161016241628162C1620163E4
:1016F000416381637047F0B50A460021002300244E
:1017000000BF3DE0012505FA01F3156805EA030471
:101710009C4234D105684F000326BE40B5430560A6
:1017200015794E00B5400668354305601579012DE1
:1017300002D01579022D16D185684F000326BE40D0
:10174000B543856055794E00B54086683543856060
:10175000456801268E40B5434560456896798E40C0
:10176000B6B235434560C5684F000326BE40B54359
:10177000C560D5794E00B540C6683543C560491C83
:101780001029BFD3F0BDF0B5002300244D07ED0EA6
:1017900002FA05F3CE1000F1200555F826504E0749
:1017A000F70E0F26BE40B543CF1000F1200646F8D5
:1017B0002750CE1000F1200555F8265045EA0304C5
:1017C000CE1000F1200545F82640F0BD0A048261E4
:1017D0007047816170474FF6FF7101600021017110
:1017E00041718171C17170470AB1816101E00B04DF
:1017F0008361704721B1028842F48062028004E074
:1018000002884FF6FF331A400280704770B50246D7
:101810000025002300240026938A03F0020010B95B
:1018200023F0100008B1148B01E0002070BD2404E7
:1018300043EA040020F07F4505EA0100884201D117
:10184000012600E000263046F0E721B1028842F090
:101850000102028004E002884FF6FE731A40028003
:10186000704721B1028842F48072028004E002884D
:101870004FF6FF631A400280704721B1028842F49C
:101880000072028004E002884FF6FF531A40028083
:10189000704700002DE9FF4704460D460026B1467B
:1018A0000427DFF8CC80A6884FF6C0700640684653
:1018B00000F008F9DDF808802E48B8FBF0F01FFAB8
:1018C00080F946EA0906A68020884FF6FE71084096
:1018D000208000262849286888420CD828684000C3
:1018E000B8FBF0F087B2042F00DA04273E4309F179
:1018F0000100208427E0E8884BF6FF71884206D17A
:10190000286800EB4000B8FBF0F087B209E02868D7
:1019100000EBC00101EB0010B8FBF0F087B247F418
:101920008047C7F30B0008B947F0010747F40040B0
:1019300006434FF4967009FB00F04FF47A7190FB68
:10194000F1F0401C2084A683208840F00100208014
:1019500026884FF6F5300640A88869890843064373
:101960002680A889298908432081BDE8FF870000D7
:1019700000127A0040420F00A08601000146088A4A
:10198000C0B2704712B141F0010101E001F0FE0167
:10199000018270470182704741F288310160002165
:1019A00081804BF6FF71C1800021018141814FF49C
:1019B000804181817047000070B5002100230F2213
:1019C000C4781CB3174C246804F4E064C4F5E064E4
:1019D000C4F30721C1F10404E3B20A4144789C40F6
:1019E000E1B28478144021430C07210E0E4C057897
:1019F0006155047804F01F050124AC4005786D1191
:101A0000AD0005F1E025C5F8004109E0047804F0D7
:101A10001F050124AC40054D0678761145F8264097
:101A200070BD00000CED00E000E400E080E100E0AB
:101A300010B5002807DA0A07140E054A00F00F0354
:101A40001B1FD45403E00A07130E024A135410BD9F
:101A500018ED00E000E400E0014908627047000072
:101A600000000E4229B1064A12680243044B1A6074
:101A700004E0034A12688243014B1A607047000079
:101A80003038024029B1064A12680243044B1A60FA
:101A900004E0034A12688243014B1A607047000059
:101AA0004038024029B1064A12680243044B1A60CA
:101AB00004E0034A12688243014B1A607047000039
:101AC00044380240F0B500210022002402250026FF
:101AD0000223324F3F6807F00C0121B1042905D0E1
:101AE000082937D105E02E4F076036E02D4F0760FB
:101AF00033E02A4F3F1F3F68C7F38056274F3F1FF1
:101B00003F6807F03F036EB1264FB7FBF3F7DFF8EE
:101B10008CC0ACF1040CDCF800C0CCF3881C07FBD3
:101B20000CF40CE01E4FB7FBF3F7DFF870C0ACF11C
:101B3000040CDCF800C0CCF3881C07FB0CF4174F36
:101B40003F1F3F68C7F301477F1C7D00B4FBF5F7DB
:101B5000076002E0124F076000BF00BF0F4F3F68F1
:101B600007F0F0010909104F7A5C0768D740476019
:101B70000A4F3F6807F4E051890A0B4F7A5C4768C7
:101B8000D7408760054F3F6807F46041490B064F17
:101B90007A5C4768D740C760F0BD00000838024053
:101BA0000024F40000127A007000002010B50146F5
:101BB0000022002300204A11012A02D10A4C236886
:101BC00008E0022A03D1084C7034236802E0064C76
:101BD0007434236801F01F02012494401C400CB1AE
:101BE000012000E0002010BD003802400021094A19
:101BF00011701170012802D0042808D103E00121DE
:101C0000044A117004E00521024A117000E000BF8F
:101C100000BF7047703802400149086070470000FB
:101C20003C0E4742002100F44072B2F5407F08D1DB
:101C3000094A116821F4F811084A02401143064A82
:101C40001160054A68321268C0F30B031A43024B55
:101C500068331A607047000008380240FFFCFF0F2D
:101C6000014600BF080900EB8000420001F00F00B0
:101C70001044C0B270470146002204E0501CC2B2BA
:101C8000A1F10A00C1B20A29F8DA100741EA10608E
:101C9000704701210170817041700021C17070474F
:101CA00008B50022009200200021104A126802F0BC
:101CB0004002CAB9421E0D4B1A6000BF0B4A12689F
:101CC00002F04001009A521C0092009AB2F5803F47
:101CD00001D00029F2D0054A126802F040020AB190
:101CE000012002E0002000E0012008BD0C28004097
:101CF0000348006820F08000014908607047000038
:101D00000C28004070B506460C4600250E480068B9
:101D10000E4900EA0105280CE070C5F3042060704C
:101D200005F03F00A070C5F3423020705EB9E07846
:101D3000FFF796FFE0706078FFF792FF6070A07881
:101D4000FFF78EFFA07070BD042800403FFFFF002A
:101D500070B506460C4600250F4800680F4900EA9A
:101D60000105C5F305402070C5F30620607005F03D
:101D70007F00A07005F48000000CE0705EB9207850
:101D8000FFF76EFF20706078FFF76AFF6070A07841
:101D9000FFF766FFA07070BD002800407F7F7F00C6
:101DA00030B504460025CA20154908605320086054
:101DB000FFF776FF00B91DE011481C38006820F0DD
:101DC00040000F491C390860084600682168084334
:101DD0000B491C3908600A491439A0680860084694
:101DE0000068A18840EA0140054914390860FFF7FE
:101DF0007FFF0125FF2002490860284630BD000012
:101E0000242800402DE9F04105460C460026002715
:101E10004DB9607800F01000102804D1607820F0EF
:101E200010000A30607005B908E06078FFF718FF0D
:101E30000646A078FFF714FF064600BF55B1E078CC
:101E40000004617840EA0120A1780843217840EA43
:101E5000413611E0E078FFF70EFF4FEA0048607866
:101E6000FFF709FF48EA0028A078FFF704FF48EAD7
:101E70000008207848EA4036CA20124908605320FA
:101E80000860FFF70DFF08B9002714E00E48304046
:101E90000C4920390860FFF72BFF0A481C380068FE
:101EA00000F0200030B900F087F808B9002702E000
:101EB000012700E00127FF20024908603846BDE8FD
:101EC000F0810000242800403FFFFF002DE9F04191
:101ED00005460C46002600274DB92E48006800F044
:101EE000400000B102E00020E07000BF0DE0294892
:101EF000006800F0400020B12078FFF7B1FE0646F0
:101F000002E00020E07000BF00BF55B1207800045F
:101F1000617840EA0120A1780843E17840EA01466F
:101F200011E02078FFF7A7FE4FEA00486078FFF73E
:101F3000A2FE48EA0028A078FFF79DFE48EA0008C4
:101F4000E07848EA0046CA2012491C310860532054
:101F50000860FFF7A5FE08B9002713E00E483040DF
:101F60000C4908390860FFF7C3FE0A48006800F012
:101F7000200030B900F020F808B9002702E001275E
:101F800000E00127FF2003491C3108603846BDE806
:101F9000F0810000082800407F7F7F000021016061
:101FA0007F214160FF21816070470021C170017075
:101FB000417081707047000008B500220092002037
:101FC0000021CA22134B1A6053221A60114A183A90
:101FD000126822F0A0020F4B183B1A6000BF0D4A96
:101FE000183A126802F02001009A521C0092009ADE
:101FF000B2F5003F01D00029F1D0064A183A126824
:1020000002F020020AB1012000E00020FF22014B73
:102010001A6008BD2428004021B1028842F0400225
:10202000028004E002884FF6BF731A4002807047B6
:1020300002884FF2FF731A40028002880A4302802E
:1020400070471AB183880B43838002E083888B43F7
:10205000838070470246002013890B400BB101209A
:1020600000E0002070478181704710B5002202888F
:1020700002F441520B884C8823438C882343CC883C
:1020800023430C8923434C8923438C892343CC89E4
:1020900023431A430280838B4FF2FF7423408383D0
:1020A0000B8A038210BD0021018041808180C180A4
:1020B000018141818181C181072101827047000036
:1020C0000CB50020019000903448006840F4803046
:1020D0003249086000BF3148006800F400300090C9
:1020E0000198401C0190009818B90198B0F5A04FD4
:1020F000F1D12A48006800F4003010B101200090AE
:1021000001E0002000900098012846D1234840308B
:10211000006840F080502149403108602048006844
:1021200040F440401E4908601C48083000681B49C4
:10213000083108600846006840F40040086008461E
:10214000006840F4A05008601648091F0860081F86
:10215000006840F08070091F086000BF0F480068E9
:1021600000F000700028F9D040F205700E490860B8
:102170000A480830006820F0030008490831086068
:102180000846006840F00200086000BF03480830BD
:10219000006800F00C000828F8D10CBD003802409F
:1021A0000070004008544007003C024010B500BFDA
:1021B000502080F31188BFF34F8FBFF36F8F00BFA4
:1021C00005F0B2FD18B14FF080500449086000BF1F
:1021D000002080F3118800BF10BD000004ED00E076
:1021E00010B51548006840F47000134908601348A2
:1021F000006840F001001149086000200F490831D3
:1022000008600E4800680E4908400C4908600D48F7
:10221000091D0860081F006820F48020091F08605D
:10222000002006490C310860FFF74AFF4FF00060BC
:1022300001498039086010BD88ED00E00038024097
:10224000FFFFF6FE1030002410B501210C4800F00D
:1022500032F8A0B101210A4800F01BF809480368D0
:1022600040684FF47A729A1840F1000005490A60FC
:1022700048600548006810B103480068804710BDF9
:10228000001000405000002058000020CA43028285
:102290007047CA430282704721B1028842F00102AE
:1022A000028004E002884FF6FE731A4002807047F5
:1022B0000146486A704730B50246002000230024DA
:1022C000158A05EA0103958905EA010413B10CB1E9
:1022D000012000E0002030BD1AB183890B438381C7
:1022E00002E083898B4383817047000000220288CB
:1022F000184B98420ED0184B98420BD0B0F1804F3B
:1023000008D0164B984205D0154B984202D0154B79
:10231000984204D14FF68F731A404B881A43124BE0
:10232000984207D0114B984204D04FF6FF431A4011
:102330000B891A4302804B68C3620B880385054BE7
:10234000984202D0044B984201D18B7A0386012334
:1023500083827047000001400004014000040040F7
:1023600000080040000C0040001000400014004035
:102370004FF0FF3141600021018001814180817275
:102380007047000010B540F225510B4800F0AAF844
:10239000012810D10948006840B1074800F05CF9F5
:1023A000C4B2204605490968884700BF40F225515C
:1023B000014800F066F810BD001001403400002014
:1023C00038B540F22551234800F08CF8012840D15F
:1023D0002148006840F2FF31884235D21D4800F0A4
:1023E0003BF91E491C4A126888541B480068401C6F
:1023F0001949086008460068401E1849085C0A2808
:1024000022D10020144A126888541548006802F04E
:10241000D5F804468CB11348047069461248006828
:1024200005F0E6F9009838B14FF080500F49086088
:10243000BFF34F8FBFF36F8F00BF0848064909688D
:1024400008440749086000BF40F22551014800F0E8
:1024500018F838BD0044004040000020A02A0020A9
:102460003C000020440000204800002004ED00E073
:1024700001F40072B2F5007F00D100BFCA430280B0
:10248000704710B50022002340F66A14A14200D123
:1024900000BF0A1201249440A3B2DC43048010BDA3
:1024A00021B1828942F40052828104E082894DF692
:1024B000FF731A40828170471AB1838A0B4383826B
:1024C00002E0838A8B438382704702460020B1F585
:1024D000007F00D100BF13880B400BB1012000E04A
:1024E0000020704770B5024600240023002500201C
:1024F00040F66A16B14200D100BFC1F3421501F0A7
:102500001F03012606FA03F3012D02D196893340F9
:1025100006E0022D02D1168A334001E0968A33404C
:102520000C12012606FA04F41688344013B10CB1DB
:10253000012000E0002070BDF0B503460024002615
:102540000025002040F66A17B94200D100BF1846A6
:10255000C1F3421401F01F06012707FA06F5012C0A
:1025600001D10C3004E0022C01D1103000E0143015
:102570001AB107682F43076002E00768AF4307609E
:10258000F0BD00002DE9FF4705460E460024A14698
:1025900000BFA046B08900B100BF2C8A24F440548B
:1025A000F08804432C82AC8941F20C608443B088EB
:1025B00031890843718908430443AC81AC8A24F40F
:1025C0004074B0890443AC826846FFF77BFA204828
:1025D000854202D01F48854202D1DDF80C9001E00F
:1025E000DDF80890A88900F4004040B109EBC9006B
:1025F00000EB091031684900B0FBF1F707E009EB87
:10260000C90000EB091031688900B0FBF1F76420C4
:10261000B7FBF0F004012009642101FB1078A889C0
:1026200000F4004040B1322000EBC800B0FBF1F0F4
:1026300000F00700044308E0322000EB081064219A
:10264000B0FBF1F000F00F0004432C81BDE8FF87E0
:10265000001001400014014001468888C0F30800C2
:102660007047C1F30802828070474FF41651016031
:1026700000218180C18001810C2141810021818163
:10268000704700000FB4054B10B503A9044A029827
:1026900000F024F910BC5DF814FB0000413E050871
:1026A000000100200FB47CB50C0009AD01D0611E03
:1026B00000E00021CDE90001064B6A462946089852
:1026C00000F00CF9002C02D0009A002111707CBCA3
:1026D0005DF814FB8530050830B583B0044600F082
:1026E00017F89FED090B05468DED000B00222146E2
:1026F0006846FEF7D8F8284600F020F89DED000B5C
:1027000003B030BD00000000000000000000000029
:1027100001480068704700000401002002E008C87A
:10272000121F08C1002AFAD170477047002001E04B
:1027300001C1121F002AFBD1704700000149086047
:1027400070470000040100202DE9FF5F82B00021E6
:10275000DDE90430020DDDF840B0034318D044F643
:102760001050A2F2FF3242431514119801281FD0D5
:10277000A5EB0B00401C5FEA000A4FF000064E4F2D
:10278000DFF83891B046504615D5CAF1000413E081
:10279000119801244AA3012801D16FEA0B01029884
:1027A000119AC0E90031C0E9024206B0BDE8F09FCD
:1027B000CBF10000DFE704460021404A491842EB14
:1027C0000450CDE9001012E0E00707D032463B4646
:1027D00040464946FEF778F98046894632463B46F0
:1027E00010461946FEF770F906460F466410002C95
:1027F000EAD1DDE90401DDE90023BAF1000F06DAD0
:10280000FEF762F942464B46FEF75EF905E0FEF739
:10281000CDF942464B46FEF7C9F904460E46002262
:10282000284BFEF74BFA03D84FF0FF30014607E084
:102830000022254B20463146FEF79FF8FEF725FA89
:10284000102409E0002C0ADB0A220023FDF79AFD80
:10285000039B30321A55641E50EA0102F2D1641C07
:10286000039AC4F111031444119A012A03D00122DE
:1028700008430DD10AE0084304D000204FF0110BAB
:10288000119072E7A3EB0B056D1E0DE05B4504DDB7
:102890004FF0000205F1010504E003DA4FF00002F9
:1028A000A5F10105002AECD002981199C0E9023186
:1028B000C0E9004579E70000000014400000F03F47
:1028C000300000000000F0430000E03F30380A28EC
:1028D00001D2012070470020704700002DE9FF4F12
:1028E00095B09A46884606460025EEE1252877D120
:1028F00000242746F94A0121039400E0044316F816
:10290000013F203B01FA03F01042F7D130782A282A
:1029100011D06FF02F033078A0F13002092A16D8B9
:10292000039A44F0020402EB820203EB42021044D9
:10293000761C0390EFE758F8042B0392002A03DA81
:10294000504244F40054039044F00204761C307862
:102950002E2816D116F8010F44F004042A280DD0B1
:102960006FF02F023078A0F13003092B09D807EB64
:10297000870302EB4303C718761CF3E758F8047B80
:10298000761C30786C280FD006DC4C2817D06828CD
:102990000DD06A2814D104E0742810D07A280FD101
:1029A0000DE044F400140AE044F4801401E044F41F
:1029B00040147278824202D104F58014761C761C91
:1029C000307866280BD013DC582877D009DC002833
:1029D00075D04528F6D04628F4D047281AD193E17F
:1029E00018E0632835D0642879D0652812D18BE1AE
:1029F000702873D008DC6728F1D069286FD06E2862
:102A00000DD06F2806D1ACE073282CD0752874D077
:102A1000782853D05246179990476D1C54E1C4F35F
:102A20000250022809D003280DD0D8F8001004283D
:102A30000DD00D6008F1040846E1D8F80010EA173F
:102A4000C1E90052F6E7D8F800100D80F2E70D70EA
:102A5000F0E718F8041B8DF8001000208DF8010035
:102A6000EB46012003E058F804BB4FF0FF3061074C
:102A70004FF0000102D40DE009F101018946B9428D
:102A80000FDA8145F8DB1BF809100029F4D108E0C2
:102A900009F1010189468142FADB1BF8091000297E
:102AA000F6D103985346A0EB090721463846179AFA
:102AB00000F080FA284400EB090507E044E008E153
:102AC0000DE01BF8010B524617999047B9F1010927
:102AD000F7D2534621463846179AF2E039E00A21E8
:102AE000C4F302524FF0000B0091022A06D058F8AE
:102AF000040BC117032A09D00AE023E008F10700FC
:102B000020F00702F2E80201904605E000B2C1178A
:102B1000042A01D140B2C117002906DA0A46002171
:102B2000404261EB02012D2202E0220504D52B2256
:102B30008DF80420012203E0E20701D02022F7E70C
:102B4000914657E00A2100E010214FF0000B009160
:102B50000BE010214FF0000B44F004040827009113
:102B600003E008204FF0000B0090C4F30252022A49
:102B700005D058F8040B0021032A08D008E008F11A
:102B8000070020F00702F2E80201904603E080B25D
:102B9000042A00D1C0B24FF0000922072AD53278AA
:102BA000702A07D0DDF800C08CF0100C5CEA0B0C2A
:102BB00005D00EE040228DF80420012208E050EA02
:102BC000010306D030238DF804308DF80520022251
:102BD0009146009B83F0080353EA0B030AD150EAA5
:102BE000010201D1620705D530228DF804204FF093
:102BF00001097F1E3278582A04D039A20C920CAAFF
:102C000002920BE03BA2F9E75B46009AFDF7BAFBA4
:102C10000C9B9B5C029A521E0292137050EA0102B6
:102C2000F2D1029804A9081A00F1200B600702D51E
:102C300024F4803400E001275F4502DDA7EB0B00A0
:102C400000E0002000EB0B01009003984944401A7B
:102C50000390E00306D453462146179A039800F0E8
:102C6000A9F90544002706E001A85246C05D17995E
:102C700090476D1C7F1C4F45F6DBE0030CD5534697
:102C80002146179A039800F095F9054404E0302096
:102C90005246179990476D1C0099481E00900029D4
:102CA000F5DC08E00298029952460078491C02912E
:102CB000179990476D1CBBF10001ABF1010BF1DCE2
:102CC0005BE100F065F90544761C307800287FF45C
:102CD0000DAE19B02846BDE8F08F000009280100AC
:102CE0003031323334353637383961626364656682
:102CF0000000000030313233343536373839414244
:102D00004344454600000000600700D4062708F150
:102D1000070020F00700F0E80223804603F0004C93
:102D20005FEA0C0001D097A009E0200501D596A02C
:102D300005E0E00701D095A001E0AFF24C00139050
:102D4000307823F0004365280CD006DC452809D0F4
:102D500046281DD047287FD13BE0662818D0672839
:102D60007AD136E00021112F01DB112000E0781C20
:102D7000CDE9000104A90CA8FFF7E6FCDDE90D018F
:102D80000C9A4FF0000B07F10109109200914EE0F0
:102D90004FF000400097CDE9011004A90CA8FFF7FF
:102DA000D3FCDDE90D020C9B0F994FF0000B91460F
:102DB0001093009211B9791C00EB0109B7EB0900DF
:102DC00003D4C0F1FF3B07F10109A9EB0700019013
:102DD00042E0012F00DA01270021112F01DD11202F
:102DE00000E03846CDE9000104A90CA8FFF7ACFCCF
:102DF000DDE90D010C9A00914FF0000BB9461092DD
:102E000021070FD4009A4A4503DA914601E0A9F15F
:102E10000109B9F1010F05DD109AA9F10101515C19
:102E20003029F4D0B84202DA10F1040F03DA01219C
:102E3000CDE9011010E0002803DC8344A9EB000178
:102E400002E0411C494500DD8946A0EB0B00401C17
:102E500001904FF000400290200705D401984845AA
:102E600002DB4FF0FF30019000208DF84B000298FC
:102E70000DF14B07B0F1004F25D002200C902B2014
:102E80000D90029800280CDA404202902D200D90FF
:102E900007E00A210298FDF774FC3031029007F830
:102EA000011D0C99481E0C900029F2DC02980028A4
:102EB000EFD1791E0D980870307800F0200040F0B6
:102EC000450007F8020D11A8C01BC01D0290139801
:102ED000007800B1012000EB0901019801EBE071DD
:102EE000029801440398401A401E0390E00306D460
:102EF00053462146179A039800F05CF8054413984E
:102F0000007818B15246179990476D1CE00323D5FD
:102F100053462146179A039800F04CF805441BE0ED
:102F2000BBF1000F07DB0098584504DD1098179996
:102F300010F80B0001E01799302052469047019895
:102F40000BF1010B401E05F10105019004D12E206B
:102F50005246179990476D1CB9F10001A9F101097A
:102F6000DEDC05E017F8010B5246179990476D1CFF
:102F70000299481E02900029F4DC53462146179A14
:102F800003989EE62D0000002B00000020000000AA
:102F90002DE9F041044600251E461746880404D456
:102FA00005E039462020B0476D1C641EF9D528463F
:102FB000BDE8F0812DE9F041044600251E4690460B
:102FC000C80301D5302700E02027880404D505E098
:102FD00041463846B0476D1C641EF9D52846BDE809
:102FE000F0811CB5044601A8FEF753FE6846FEF7C3
:102FF000DCFF01A90020FEF785FE69460020FEF7F0
:10300000A7FE9DF8070000F5FA6020809DF80500F6
:10301000A0709DF80600E0709DF80400E0719DF836
:10302000000020719DF8010060719DF80200A07100
:103030001CBD1CB5044601A8FEF72BFE6846FEF732
:10304000B4FF2078A0F5FA60C0B28DF80700A07830
:103050008DF80500E0788DF80600E0798DF8040021
:1030600020798DF8000060798DF80100A0798DF845
:10307000020001A90020FEF7C5FE69460020FEF708
:1030800025FF1CBD4A68002A06D00A68531C0B6045
:1030900010704868401E48607047000010B588B046
:1030A00006A8FEF798FBC020069002208DF81C00B1
:1030B00003208DF81D0001208DF81E0000208DF8E2
:1030C0001F0006A92748FEF716FB04220621254803
:1030D000FEF759FB042207212248FEF754FB02A801
:1030E000FEF75AFC204802900020ADF80C004BF689
:1030F000FF70ADF80E000020ADF810004FF48060B6
:10310000ADF812000001ADF8140002A91748FEF74F
:10311000C1FB01211548FEF798FB49F6404002F03B
:10312000AFFF00F032F810B1012008B010BD10A0C0
:1031300000680190032101A800F020F908B90020DF
:10314000F3E7002409E041F2883002F099FF00F033
:103150001CF808B10120E8E7641C642CF3D30020BC
:10316000E3E7000000040240A08601000054004094
:10317000BE08000008B5684600F0CAF808B900208B
:1031800008BD9DF80000C009FAE708B5684600F0E0
:10319000BFF808B9002008BD9DF80000C0F3C000CA
:1031A000F9E700002DE9F04107460D4601212F48BF
:1031B000FEF720FB01212D48FEF753FB00BF4FF423
:1031C0007A7403E00A2002F05BFF0A3C2849274892
:1031D000FEF71CFB08B9002CF4D114B90020BDE89F
:1031E000F08100BF012270212048FEF7CBFB00BF19
:1031F0004FF47A7403E00A2002F042FF0A3C1C49B3
:10320000491C1A48FEF702FB08B9002CF3D10CB98F
:103210000020E4E700BF00241FE0681EA04203D1A5
:1032200000211248FEF7E6FA00BF4FF47A7603E079
:103230000A2002F025FF0A3E0D493F310B48FEF7F8
:10324000E5FA08B9002EF3D10EB90020C7E700BF98
:103250000648FEF793FB3855641CAC42DDD30121D0
:103260000248FEF70AFB0120B9E7000000540040C5
:10327000010003002DE9FC4106460F460621684681
:10328000FFF790FF10B90020BDE8FC819DF8010018
:1032900000039DF8021040EA01109DF8031040EA77
:1032A00011149DF803000007000B9DF8041040EA7C
:1032B00001209DF8051040EA010500EE104AB8EE25
:1032C000400ADFED0F0A20EE200ADFED0E0A80EE45
:1032D000201A87ED001A00EE105AB8EE400ADFED12
:1032E0000A0A20EE200A9FED071AC0EE010A9FEDA0
:1032F000070A30EEC00A86ED000A0120C4E700008C
:103300000000C842000080490000484300004842D5
:1033100038B50446712000900121684600F02EF86F
:1033200008B9002038BD01212046FFF73BFF08B94E
:103330000020F7E70120F5E708B506A00068009037
:103340000321684600F01AF808B9002008BD0120E2
:10335000FCE70000AC33000010B5002409E042F2A5
:10336000107002F08DFEFFF705FF08B9012010BDB7
:10337000641CC82CF3D30120F9E700002DE9F041CB
:1033800006460F4601212B48FEF734FA0121294851
:10339000FEF767FA00BF4FF47A7403E00A2002F0E8
:1033A0006FFE0A3C24492348FEF730FA08B9002C86
:1033B000F4D114B90020BDE8F08100BF00227021D3
:1033C0001C48FEF7DFFA00BF4FF47A7403E00A20CE
:1033D00002F056FE0A3C19491648FEF717FA08B9DA
:1033E000002CF4D10CB90020E5E700BF002418E060
:1033F000315D1048FEF7CEFA00BF4FF47A7503E056
:103400000A2002F03DFE0A3D0C49891E0948FEF7DC
:10341000FDF908B9002DF3D10DB90020CBE700BFAD
:10342000641CBC42E4D301210248FEF726FA0120C5
:10343000C1E70000005400400100030082000700C3
:1034400038B54148414B01224FF47A71009040A0B9
:1034500004F0B8FE414908604148424B002242490D
:10346000009042A004F0AEFE434908603C48434B44
:10347000012241F28831009041A004F0A3FE4349AB
:1034800008603748424B012240F6B831009041A015
:1034900004F098FE434908603148434B01224EF640
:1034A0006021009041A004F08DFE444908602D4940
:1034B000434803F0A1FE3149414803F09DFE3449E1
:1034C0003F4803F099FE38493D4803F095FE04F06B
:1034D00025FC0446002003462246012100901F4897
:1034E000006804F0BFFE04F019FC04460020034607
:1034F0002246012100902048006804F0B3FE04F049
:103500000DFC0446002003462246012100901F487E
:10351000006804F0A7FE04F001FC04460020034606
:103520002246012100901F48006804F09BFE04F031
:10353000F5FB0446002003462246012100901F4867
:10354000006804F08FFE38BDC53505082162050806
:1035500074696D65207570646174650008000020F1
:103560007D710508E160050880EE360074696D65BF
:103570002073796E6300000000000020356F05089D
:1035800077696669207570646174650004000020C5
:103590009D3E0508696E6E65722075706164746584
:1035A000000000000C000020294605086F757464B7
:1035B0006F6F7220757064617465000010000020E8
:1035C000D535050870B50446204602F0A5F8054635
:1035D000A84770BD70B504462546A84770BD70B5B4
:1035E00002468B8903EBD3767610F01DC61700EBED
:1035F0005676F5108889684384B2486880B14B6874
:1036000000BF1878904205D1D1E900069E1B06FB49
:10361000040070BD581C034600780028F1D105E075
:10362000A2F120000B6800FB0430F2E70020F0E775
:1036300010B500F0DDF80AA20CA10FA0FFF722F8E8
:1036400002F0B5F802F0E2FC02F0A6F9FFF726FD61
:1036500020B910A0FFF716F800BFFEE710BD00006C
:1036600031383A34323A3035000000004A756E2065
:1036700020392032303236005B5359535D20427579
:10368000696C6420446174653A2025732025730AAF
:10369000000000005B4552524F525D206168743259
:1036A0003020696E6974206661696C65642121212E
:1036B0000D0A00001CB5324800680190314901989C
:1036C000884211D12E48007A00909DF80000012810
:1036D00003D12D482D49086005E09DF8000010B980
:1036E0002B482A49086002E029482849086001213E
:1036F0000846FEF7B7F901210220FEF7B3F90121D0
:103700000420FEF7AFF901210820FEF7ABF90121F3
:103710001020FEF7A7F901211020FEF7C3F90121BF
:103720004804FEF7AFF901214805FEF7ABF9012186
:103730008805FEF7A7F901218803FEF7A3F9012107
:103740001020FEF79FF901210807FEF79BF90121E0
:103750004805FEF787F901218805FEF783F9012066
:10376000FEF77AF90120FEF741FA00BF4120FEF78B
:103770001DFA0028FAD04FF48070FEF753FA1CBDF2
:1037800000C00008544F4F420001050808ED00E05A
:103790000001010800B58FB06846FDF79BFF4FF0B0
:1037A0000060009010480190402003900020059098
:1037B00007904FF4806006900020089009900A90CE
:1037C00004200B9003200C904FF080700D9000208F
:1037D0000E90012210210548FDF732FF694603488B
:1037E000FDF74CFF0FB000BD04100140B86402406B
:1037F00010B503220021012003F0DCFD0849086018
:103800000846006818B9542106A002F075FE00F0C1
:1038100055F8FFF7BFFF00F013F800F031F810BDC6
:10382000300000202E2E5C6472697665725C636FD6
:103830006E736F6C655C636F6E736F6C652E630087
:1038400008B525208DF8000005208DF80100002026
:103850008DF8020001208DF803006846FEF7ACF8F1
:1038600005212520FEF7E4F846208DF80000684683
:10387000FEF7A2F805214620FEF7DAF808BD0000A1
:103880001CB5072209210C48FDF77DFF07220A21FC
:103890000948FDF778FF6846FDF79DFF02208DF887
:1038A000040003208DF8050040020090694602489C
:1038B000FDF721FF1CBD0000000002401FB5684657
:1038C000FEF7D3FE4FF4E13000900020ADF80C007D
:1038D0000C20ADF80A000020ADF80800ADF8060095
:1038E000ADF8040069460948FEF74CFE012240F29B
:1038F00025510648FEF720FE012280210348FEF7ED
:10390000DBFD01210148FEF7CBFD1FBD001001408A
:103910002DE9FC4104460027002040F23F13EF222E
:103920000146009002F0B6FC134800214FF47843A2
:1039300012A2CDE900106421462002F045FD0026C8
:103940002046FCF792FD0F49898948434508F02D30
:1039500005DAC5F1F10000EBD071C1F34F0609485B
:1039600000214FF6E0732246CDE90010F5213046E4
:1039700002F02AFDBDE8FC81D4B705084552524F3C
:10398000520000009CCC05082DE9F84305460E4680
:10399000174605B116B90020BDE8F883DFF830807E
:1039A0002B460CA24FF4806140460096FEF77AFE4B
:1039B00004463FB1C4F5806108EB04003B460BA20E
:1039C000FEF770FE41F28831404600F009FAE3E765
:1039D000A02A002041542B43574A41503D222573D1
:1039E000222C222573220D0A000000002C222573B0
:1039F0002200000000B58FB06846FDF76BFE4FF067
:103A0000006000900F480190402003900020059036
:103A100007904FF4806006900020089009904FF4C2
:103A200080300A9004200B9003200C904FF080709F
:103A30000D9000200E9069460348FDF71FFE0FB061
:103A400000BD000004440040A060024000487047F0
:103A5000A02A002070B504464FF4FA6112A000F0CD
:103A6000BFF908B9002070BDFFF7F0FF05462146F9
:103A700000F0C4FE08B90020F5E794F85C000128C6
:103A800010D14FF4FA610CA000F0AAF908B9002097
:103A9000E9E7FFF7DBFF0546214600F07BFE08B9AA
:103AA0000020E0E70120DEE741542B435753544107
:103AB00054453F0D0A00000041542B43574A4150E2
:103AC0003F0D0A0070B50446094D234609A24FF484
:103AD00080612846FEF7E6FD41F28831284600F075
:103AE0007FF9064616B1FFF7B1FF70BD0020FCE775
:103AF000A02A002041542B48545450434C49454E71
:103B0000543D322C312C222573222C2C2C320D0AC0
:103B10000000000010B503220021012003F04AFC40
:103B2000114908600846006818B982210FA002F008
:103B3000E3FC00F075F840F6B83000F021F908B960
:103B4000002010BD4FF4FA610FA000F049F908B948
:103B50000020F6E741F2883000F026F908B900208D
:103B6000EFE70120EDE70000480000202E2E5C6406
:103B700072697665725C6573705F61745C657370A1
:103B80005F61742E6300000041542B524553544F23
:103B900052450D0A0000000038B526208DF80000BF
:103BA00005208DF8010000208DF8020001208DF81D
:103BB00003006846FDF700FF26200521002807DAEC
:103BC0000A07140E054A00F00F031B1FD45403E02C
:103BD0000A07130E024A135400BF38BD18ED00E067
:103BE00000E400E01CB5072202210C48FDF7CBFDE4
:103BF000072203210948FDF7C6FD6846FDF7EBFDE6
:103C000002208DF8040003208DF805000C200090A0
:103C100069460248FDF76FFD1CBD00000000024030
:103C200010B500F03DF8FFF7E5FEFFF7B5FFFFF731
:103C3000D9FF10BD70B504464FF4FA6108A000F03A
:103C4000CFF808B9002070BDFFF700FF05462146F8
:103C500000F058FD08B90020F5E70120F3E7000067
:103C600041542B434950534E545054494D453F0DF8
:103C70000A00000010B54FF4FA6104A000F0B0F89B
:103C800008B9002010BD0120FCE7000041542B437F
:103C90004950534E54504346473D312C380D0A008D
:103CA0001FB56846FEF7E1FC4FF4E13000900020BC
:103CB000ADF80C000C20ADF80A000020ADF80800AB
:103CC000ADF80600ADF8040069460948FEF75AFC55
:103CD000012280210648FEF7EFFB012240F2255128
:103CE0000348FEF729FC01210148FEF7D9FB1FBD5F
:103CF0000044004070B5044600200E4908600E489C
:103D00000E4908604FF47A7060434FF47A71B0FB4B
:103D1000F1F631460A48006803F0A0FE012800D100
:103D200000E00020054615B10648007870BD00206F
:103D3000FCE7000040000020A02A00203C000020FA
:103D4000480000204400002070B504462046FCF7DF
:103D50008CFB0546084804600748AC38C0F8A450FE
:103D6000064905480C38FDF7F9FB012102480C38DB
:103D7000FDF728FC70BD0000AC6002400000202070
:103D800070B50446002507E0642105A000F028F87E
:103D900008B1012070BD6435A542F5D30020F9E7D4
:103DA00041540D0A0000000010B504462046FFF7FC
:103DB000A1FF042801D1012010BD0020FCE7000074
:103DC00010B54FF4FA6102A000F00AF810BD00002F
:103DD00041542B43574D4F44453D310D0A000000DF
:103DE00070B504460D46214609A0FEF74BFC20465F
:103DF000FFF7AAFF2846FFF77DFF064609490AA0FC
:103E0000FEF740FC012E01D1012070BD0020FCE72F
:103E10005B44454255475D2053656E643A202573E7
:103E20000A000000A02A00205B44454255475D205F
:103E3000526573706F6E73653A0A25730A0000004D
:103E400070B504460D4640210748FEF711FBE1B26C
:103E50000548FEF706FC00BF40210348FEF735FB8E
:103E60000028F9D0204670BD0010014010B504466E
:103E7000F02C02DAB1F5A07F01DB002010BDF02AA2
:103E800002DAB3F5A07F01DB0020F7E7944201DC02
:103E9000994201DD0020F1E70120EFE700B52DEDAB
:103EA000048B85B0FFF748FA30B92CA0FEF7EAFB87
:103EB00005B0BDEC048B00BDFFF74EFA18B930A079
:103EC000FEF7E0FBF4E79FED380A8DED040A9FED65
:103ED000360A8DED030A03A904A8FFF7CBF918B938
:103EE00032A0FEF7CFFBE3E79DED040A3848D0EDA2
:103EF000000AB4EE600AF1EE10FA0AD19DED030A51
:103F00003448D0ED000AB4EE600AF1EE10FA00D1A8
:103F1000CEE79DED040A2E4880ED000A9DED030AD0
:103F20002C4880ED000A0398FCF7FCFB41EC190BD0
:103F30000498FCF7F7FB41EC180B8DED009B53EC5C
:103F4000182B25A0FEF79EFB9DED040A00F0FCF95E
:103F50009DED030A00F0C2F900BFA9E75B41485498
:103F600032305D207374617274206D656173757297
:103F7000656D656E74206661696C65640A00000099
:103F80005B41485432305D207761697420666F72FE
:103F9000206D6561737572656D656E74206661690B
:103FA0006C65640A00000000000000005B4148549A
:103FB00032305D2072656164206D65617375726574
:103FC0006D656E74206661696C65640A00000000AE
:103FD0001C000020200000205B41485432305D204E
:103FE00054656D70657261747572653A20252E3165
:103FF000662C2048756D69646974793A20252E31E4
:10400000660A00000146A12903DBF72901DC012033
:1040100070470020FCE700001CB5FFF74BFB03F0E6
:10402000BBF80020092103464FF40062CDE90010DF
:1040300003A1054803F032FE02F0A0FD00BFFEE739
:10404000696E6974000000004D40050810B5044613
:10405000FFF7EEFA02F092F902F06AFE08A0FEF70E
:1040600011FB02F0A9FE02F00FFF02F0EFFF00F0DB
:1040700015F8FFF7E5F9002002F020FC10BD000064
:1040800063757272656E74206170702076657273EC
:10409000696F6E3A2056312E300D0A001CB500248F
:1040A000002040F23F13EF220146009002F0F2F8A8
:1040B00000BF4FF6DF709A23E0220F2100900846E0
:1040C00002F0E8F83E4A1421172002F0CBF83DA098
:1040D00000F056FA3E484FF6DF7100233DA2CDE9CD
:1040E00000102A21192002F06FF93C484FF6DF71C9
:1040F00048F671433AA2CDE900107921232002F05D
:1041000063F900BF00BF48F6DD604FF49873722278
:10411000A52100900F2002F0BDF8364848F6DD6179
:10412000002335A2CDE90010AA21132002F04CF99A
:10413000344848F6DD61002333A2CDE90010BF21E9
:10414000562002F041F92F4848F6DD6100232FA2E6
:10415000CDE900104FF483715B2002F035F99FED3B
:104160002C0A00F0F1F89FED2A0A00F0B7F800BF22
:1041700000BF4FF629404FF49873E022A52100902C
:104180007D2002F087F81F484FF6294100231EA228
:10419000CDE90010BD21C02002F016F91D4AEF2123
:1041A0008B2002F05FF81CA000F00CF99FED180ABC
:1041B00000F022F9601E00F05DF900BF1CBD000098
:1041C000187606086950686F6E653134000000008B
:1041D000E00D06082D2D3A2D2D0000009CCC050881
:1041E0002D2D2D2D2F2D2D2F2D2D20D0C7C6DACBE7
:1041F000C400000064D70508CAD2C4DABBB7BEB396
:1042000000000000D4B705084300000025000000AE
:104210009AF9794490710608BBB4C4CF000000003D
:1042200010B588B00446E079012801D11CA21EE037
:10423000E079022801D11BA219E0E079032801D11D
:1042400019A214E0E079042801D118A20FE0E07966
:10425000052801D116A20AE0E079062801D115A2AD
:1042600005E0E079072801D113A200E013A2E0786D
:10427000A178CDE901020091238811A2122103A89F
:10428000FEF710FA14484FF6DF7148F6714303AA9F
:10429000CDE900107921232002F096F808B010BD76
:1042A000D2BB0000B6FE0000C8FD0000CBC4000079
:1042B000CEE50000C1F90000CCEC00005800000081
:1042C000253034752F253032752F2530327520D0AA
:1042D000C7C6DA25730000009CCC050800B52DED9B
:1042E000048B83B0B0EE408AB5EEC08AF1EE10FACE
:1042F00013DD9FED110AB4EEC08AF1EE10FA0CD86E
:1043000018EE100AFCF70EFA41EC190B8DED009B2C
:104310000AA2032102A8FEF7C5F90A4848F6DD61A2
:10432000002302AACDE90010EF21192002F04CF879
:1043300003B0BDEC048B00BDE1FAC74225322E303C
:104340006600000084FA050800B52DED048B83B0EB
:10435000B0EE408A164800680290BAEE040AB4EE45
:10436000C08AF1EE10FA13DD9FED120AB4EEC08A96
:10437000F1EE10FA0CD818EE100AFCF7D3F941EC64
:10438000190B8DED009B0CA2032102A8FEF78AF900
:104390000B4848F6DD61002302AACDE90010C021D8
:1043A0001E2002F011F803B0BDEC048B00BD00002C
:1043B00008B807080000C84225322E306600000009
:1043C00074ED050810B586B00446234608A20921FD
:1043D00003A8FEF767F907484FF62941002303AA0F
:1043E000CDE90010AA217F2001F0EEFF06B010BD3C
:1043F0002573000064D7050800B52DED048B83B04C
:10440000B0EE408A164800680290BAEE040AB4EE94
:10441000C08AF1EE10FA13DD9FED120AB4EEC08AE5
:10442000F1EE10FA0CD818EE100AFCF77BF941EC0B
:10443000190B8DED009B0CA2032102A8FEF732F9A7
:104440000B484FF62941002302AACDE90010BE21F6
:10445000872001F0B9FF03B0BDEC048B00BD000064
:104460000CB807080000C84225322E306600000054
:104470006CE2050870B504461CB1022C01D0262C54
:1044800001D1224D3CE0012C01D0032C01D1204D63
:1044900036E0042C01D0092C01D11E4D30E0052C52
:1044A00005D0062C03D0072C01D0082C01D11A4DC1
:1044B00026E00A2C0DD00D2C0BD00E2C09D00F2C81
:1044C00007D0102C05D0112C03D0122C01D0132CA6
:1044D00001D1124D14E00B2C01D00C2C01D1104D48
:1044E0000EE0142C09D0152C07D0162C05D0172C53
:1044F00003D0182C01D0192C01D10A4D00E00A4D2F
:104500002A46F021A62001F0ADFE70BD28690608FC
:10451000B8A30608E88C0608B824060858D106088F
:10452000883B060888BA0608585206087FB5044634
:10453000A07900EBD0714910A0EB410109B93A21F3
:1045400000E020210D466079CDE90050237908A2D2
:10455000062102A8FEF7A6F808484FF6DF710023EF
:1045600002AACDE900102A21192001F02DFF7FBDFC
:10457000253032752563253032750000E00D0608C0
:1045800010B588B00446234609A2152102A8FEF7FB
:1045900089F809484FF6DF7148F6714302AACDE960
:1045A00000101721322001F00FFF08B010BD0000ED
:1045B00025323073000000009CD2050870B5054616
:1045C00000240CE0084800EBC40041682846FBF7D3
:1045D00053FF18B9044810F8340070BD641C042C53
:1045E000F0D30020F9E7000010B8070830B58DB00F
:1045F000054630220B4901A8FBF7F5FE00240CE02C
:1046000001A850F824102846FBF736FF18B9601CA3
:10461000C0B20DB030BD601CC4B20C2CF0DB002069
:10462000F7E7000030B8070830B52DED028BB1B0C8
:10463000B82103A8FBF7F0FE1E4D2846FFF742FA0B
:10464000044634B91CA0FEF71DF831B0BDEC028B56
:1046500030BD03A9204600F003F918B91CA0FEF7ED
:1046600011F8F2E7B82203A91F48FBF713FF00B9BE
:10467000EBE7B82203A91C48FBF7B5FE9DED300A15
:1046800010EE101A0846FCF74DF841EC180B8DEDB2
:10469000008B2BAA03A915A0FDF7F4FFDDED300A6E
:1046A000B0EE600AFFF7A8FE2F98FFF7E3FE00BF09
:1046B000CBE70000BCB807085B574541544845525A
:1046C0005D2068747470206572726F720A00000059
:1046D0005B574541544845525D20706172736520B7
:1046E0006661696C65640A00680100205B5745419A
:1046F000544845525D2025732C2025732C20252EEF
:1047000031660A0030B589B005460C4611A128462D
:10471000FBF78DFE0546A01D611D221DCDE903049A
:10472000CDE90121E01C06AB07AA0EA100902846A6
:10473000FBF7C6FE072802D0002009B030BD07A84D
:1047400002F0DAFAE07106A8FFF750FFA07001202E
:10475000F3E700002B434950534E545054494D4504
:104760003A0000002B434950534E545054494D4594
:104770003A25337320253373202568687520256812
:1047800068753A256868753A2568687520256875E2
:10479000000000007CB505460C460DA12846FBF73D
:1047A00046FE05460DB900207CBD04F15800011FEE
:1047B00004F140032246CDE9001007A12846FBF78B
:1047C0007FFE042801D00020EEE70120ECE7000086
:1047D0002B43574A41503A002B43574A41503A2203
:1047E0002536335B5E225D222C222531375B5E222B
:1047F0005D222C25642C25640000000038B5054698
:104800000C460EA12846FBF712FE05460DB9002006
:1048100038BD23466A460CA12846FBF751FE022804
:1048200001D00020F4E70098022801D1012000E027
:10483000002084F85C000120EAE700002B43575376
:10484000544154453A0000002B43575354415445BA
:104850003A25642C222536335B5E225D0000000081
:104860002DE9F34F2DED028B85B00C463AA1079848
:10487000FBF7DDFD0790079828B9002005B0BDECD7
:10488000028BBDE8FC8F37A10798FBF7D0FD0546EA
:104890000DB90020F2E736A12846FBF7C8FD064611
:1048A00026B1224634A13046FBF70AFE37A128463E
:1048B000FBF7BDFD07462FB104F1200235A13846B4
:1048C000FBF7FEFD38A10798FBF7B1FD8046B8F174
:1048D000000F01D10020D1E735A14046FBF7A7FD2D
:1048E0008146B9F1000F05D004F1A00232A148467B
:1048F000FBF7E6FD35A14046FBF799FD8246BAF18C
:10490000000F05D004F1B00232A15046FBF7D8FDEC
:104910000020019002900390049032A14046FBF7E2
:1049200086FD8346BBF1000F13D001AA31A1584682
:10493000FBF7C6FD01280CD101A8FDF7CDFEB0EEB6
:10494000408AF0EE608A51EC180BFBF7FEFEC4F8CB
:10495000B400012092E7000022726573756C7473D5
:10496000223A0000226C6F636174696F6E223A0014
:10497000226E616D65223A00226E616D65223A20D9
:10498000222533315B5E225D2200000022706174BB
:1049900068223A002270617468223A20222531325E
:1049A000385B5E225D220000226E6F77223A0000A3
:1049B0002274657874223A002274657874223A2051
:1049C000222531355B5E225D2200000022636F6488
:1049D00065223A0022636F6465223A202225642210
:1049E000000000002274656D7065726174757265F7
:1049F000223A00002274656D70657261747572658B
:104A0000223A20222531355B5E225D220000000023
:104A10002DE9F04105460E461C4807681C48006811
:104A2000001D01F01BFD50B91948006890F82C10CA
:104A30000120884017490968814316480160681CB5
:104A400038B936B112480168091D134801F09CFDC0
:104A50001AE07C190E4800684460BC4207D20C483A
:104A60000168091D0D48006801F074FD0CE008485C
:104A70000168091D0A48006801F06CFD09480068DA
:104A8000844201D207480460BDE8F0819400002010
:104A900080000020980000200830002088000020BE
:104AA00084000020B000002010B5044601F078FD1D
:104AB00023480068401C224908602248006840B929
:104AC000204804600846006801280DD100F02AFA49
:104AD0000AE01D48006838B91A480068C06AE16AEF
:104AE000884201D81748046018480068401C1749DC
:104AF000086094F82C100120884015490968084383
:104B000013490860E16A01EB8101124A02EB81005E
:104B1000211D01F039FD01F07DFD0B48006868B1F1
:104B200008480068C06AE16A884207D24FF08050A6
:104B300009490860BFF34F8FBFF36F8F10BD0000AE
:104B400090000020800000209C000020AC0000208D
:104B500098000020F02E002004ED00E010B501F0D8
:104B60001FFD10480068D0B90F4801F0E3FC0F4862
:104B700001F0E0FC0C480E4908600C480D49086043
:104B800000220C21202002F015FC0649086008468E
:104B9000006820B108A10348006801F01BFE01F085
:104BA00039FD10BDC80000201C300020303000202E
:104BB000C0000020C4000020546D725100000000AD
:104BC00010B516E001F0ECFC0C48C068C468201D6C
:104BD00001F044FC0A480068401E09490860094881
:104BE0000068401E0749086001F014FD204600F0EF
:104BF0005FF8044800680028E4D110BDF42F0020BD
:104C0000900000208C00002070B504460D46206CFA
:104C100070B1216CE0680144E160D4E9021088427F
:104C200001D32168E1602846226CE168FBF7DBFBD9
:104C300070BD2DE9F04104460F4615464FF00008BF
:104C4000A66B206C48B9206800282CD1A06803F01E
:104C500019F980460020A06025E07DB93946226C14
:104C60006068FBF7C0FB216C606808446060D4E9B1
:104C70000101884217D32068606014E03946226C35
:104C8000E068FBF7B0FB216CE068411AE160216845
:104C9000E068884203D2216CA068411AE160022DCD
:104CA00001D106B1761E701CA0634046BDE8F081BC
:104CB00010B50446206B01F0DBFC204601F0D8FC67
:104CC00010BD01464A6A22B10A6B1268C2F10A009D
:104CD00000E00020704700000146084A1268126890
:104CE0000AB9012200E000220A600A6822B9034AD8
:104CF0001268D268106800E000207047C0000020F1
:104D000030B54FF4B833174800F007042CB1C01D7C
:104D100020F00700134C041B1B1B0246124C2260A0
:104D20000024114D6C60D018083820F007000F4C9B
:104D3000206000240D4D2D686C600C4D2D682C609A
:104D40001146441A4C60094C24680C60084D4C68AC
:104D50002C60084D4C682C604FF00044064D2C60D0
:104D600030BD000044300020D4000020DC000020D2
:104D7000E4000020E0000020F000002000BFFFF76A
:104D80001FFF064800680128F9D94FF080500449F8
:104D90000860BFF34F8FBFF36F8FF0E7F02E002056
:104DA00004ED00E02DE9F04106460D461746984611
:104DB000069C0DB9246000E02760E66325640121AC
:104DC000204602F047FB0020A064BDE8F08100000F
:104DD0002DE9F05F82460E4690469B460A9F0C9C4A
:104DE0004FEA8801A522206BFBF70FFBA8F1010019
:104DF000216B01EB800929F0070909F0070008B9C8
:104E0000012000E0002020B940F25E3121A001F035
:104E100073FB86B1002507E0715D04F13400415554
:104E2000705D00B902E06D1C102DF5D300BF0021AC
:104E30004320015502E0002084F834000A2F00D3FB
:104E40000927E76267640020A064201D01F07FFB52
:104E500004F1180001F07BFB2461C7F10A00A06196
:104E60006462142104F14C00FBF7D6FA002020669E
:104E70006066A066A4F86C0084F86E005A4651463D
:104E8000484600F069FC20600B9808B10B9804605C
:104E9000BDE8F09F2E2E5C74686972645F6C696275
:104EA0005C6672656572746F735C7461736B732E8C
:104EB000630000002DE9F04706460D461746984668
:104EC000DDE908940DB1012000E0002020B940F296
:104ED0005F110CA001F010FB8CB1FFF73FFE2660C4
:104EE000A561C4F81C80C4F82090201D01F02FFBA0
:104EF0002FB194F8240040F0040084F82400BDE8A9
:104F0000F08700002E2E5C74686972645F6C6962C1
:104F10005C6672656572746F735C74696D657273DB
:104F20002E63000010B5002407E004EB84010F4A53
:104F300002EB810001F0FEFA641C0A2CF5D30C4848
:104F400001F0F8FA0B4801F0F5FA0B4801F0F2FA1B
:104F50000A4801F0EFFA0A4801F0ECFA044809495E
:104F6000086004480849086010BD0000F02E0020C9
:104F7000B82F0020CC2F0020E02F0020F42F00209D
:104F800008300020840000208800002010B5014671
:104F9000164800E0006803688B42FBD30246436872
:104FA00013448B4204D143684C6823444360014658
:104FB0000A464B6813440468A34211D10C4C0368A1
:104FC0002468A34208D04B680468646823444B609B
:104FD00003681B680B6005E0054B1B680B6001E074
:104FE00003680B60884200D0016010BDD40000202F
:104FF000DC0000202DE9F04104460D4616461F4610
:105000004FF0000865602461B5420CD8F01BA1691F
:10501000884202D34FF0010811E0211D09480068C1
:1050200001F098FA0BE0BE4204D2BD4202D34FF029
:10503000010804E0211D0448006801F08BFA404695
:10504000BDE8F081C4000020C000002070B5054616
:1050500001F0A6FAA86B08B9012400E0002401F0D1
:10506000D9FA204670BD70B5054601F099FAA86BD3
:10507000E96B884201D1012400E0002401F0CAFA62
:10508000204670BDF1B50098846C002624B940F626
:105090009C311EA001F030FAA06BE16B884201D276
:1050A000012000E0002020B940F69D3117A001F05A
:1050B00023FAA06BE16B884226D294F94550002276
:1050C00069462046FFF7B5FD0646681C60B9606A70
:1050D00008B9012000E00020A8B904F1240002F082
:1050E0008FFF80B101260EE07F2D01D0012000E06E
:1050F000002020B940F6BD3104A001F0FDF9681C84
:1051000040B284F8450000BF3046F8BD2E2E5C74D6
:10511000686972645F6C69625C6672656572746FFF
:10512000735C71756575652E63000000F8B5054602
:105130000F4617480068C068C468201D01F08EF94A
:1051400094F8240000F00400B8B1A06941192B467E
:105150003A462046FFF74EFFA8B1002003462A46F4
:1051600001460090204603F07DF8064626B94FF42C
:10517000057108A001F0C0F905E094F8240020F0C2
:10518000010084F824002046216A8847F8BD000009
:10519000C00000202E2E5C74686972645F6C6962C6
:1051A0005C6672656572746F735C74696D65727349
:1051B0002E63000070B586B07EE0039800287BDB8C
:1051C000059C606908B9012000E0002010B9201D8D
:1051D00001F044F902A800F0DFF8054603980A2818
:1051E00068D2DFE800F0090507333B570608343C76
:1051F00000BF00BF00BF00BF94F8240040F00100D2
:1052000084F824000498A269811803462A4620469F
:10521000FFF7F0FEC8B12046216A884794F82400C1
:1052200000F0040088B1002000900498A1694218A1
:1052300000231946204603F015F8064626B940F229
:10524000363123A001F058F900BF34E000BF94F8D4
:10525000240020F0010084F824002CE000BF94F822
:10526000240040F0010084F824000498A061A069A3
:1052700008B1012000E0002020B940F24F3114A015
:1052800001F03AF9A06941192B462A462046FFF75A
:10529000B1FE10E094F8240000F0020018B9204696
:1052A00001F0E6F905E094F8240020F0010084F80C
:1052B000240000E000BF00BF002203A90C480068E2
:1052C00002F01AFB00287FF478AF06B070BD000032
:1052D0002E2E5C74686972645F6C69625C667265CC
:1052E0006572746F735C74696D6572732E63000010
:1052F000C8000020F8B505460C4601F097FC68464A
:1053000000F04AF80646009820BB44B9B54206D8DA
:1053100002F0CCFE31462846FFF708FF1CE03CB106
:105320000E480068006808B9012000E0002004462B
:10533000A91B22460A48006801F062FA02F0B6FE94
:1053400050B94FF0805007490860BFF34F8FBFF34B
:105350006F8F01E002F0AAFEF8BD0000C40000203B
:10536000C800002004ED00E009480068006808B9A2
:10537000012000E0002020B14FF0FF300549086017
:1053800005E003480068C06800680249086070478B
:1053900084000020B000002070B5044602F0BEFC7E
:1053A000054607480068854204D200F00BF801204A
:1053B000206001E00020206001480560284670BDA3
:1053C000D00000202DE9F8432EE022480068C06894
:1053D000056820480068C068C468201D01F03EF8D8
:1053E0002046216A884794F8240000F00400D8B1D0
:1053F000A0694619AE4207D966602461211D15488F
:10540000006801F0A7F80FE0002003462A46014695
:105410000090204602F026FF074627B940F2A93146
:105420000DA001F069F800BF0A480068006808B9DB
:10543000012000E000200028C7D00648D0F80080F6
:105440000D480068034908600B48C0F80080BDE8BB
:10545000F8830000C00000202E2E5C74686972641E
:105460005F6C69625C6672656572746F735C7469A7
:105470006D6572732E630000C40000200B48006845
:10548000401C08B9012000E0002018B9E82108A05C
:1054900001F032F800BF502080F31188BFF34F8F26
:1054A000BFF36F8F00BF00BFFEE70000F4000020D5
:1054B0002E2E5C74686972645F6C69625C667265EA
:1054C0006572746F735C706F727461626C655C702E
:1054D0006F72742E6300000008B500BF6846FFF7C6
:1054E000FBFB044620460099FFF704FFFFF762FE2E
:1054F000F4E770B5044601F053F894F9455019E00B
:10550000A06C30B12046FFF7BDFD88B101F06AFA0A
:105510000EE0606A08B9012000E0002038B904F10B
:10552000240002F06DFD18B101F05CFA00E003E028
:10553000681E45B2002DE3DC00BFFF2084F8450063
:1055400001F068F801F02CF894F9445010E020695B
:1055500008B9012000E0002048B904F1100002F071
:105560004FFD08B101F03EFA681E45B200E001E0CF
:10557000002DECDC00BFFF2084F8440001F04AF865
:1055800070BD00002DE9F04104464FF0000801F025
:105590004DFB4948006808B9FFF7B2FB474800686F
:1055A0002040002871D10CB304F10800A0421DD99D
:1055B000083404F00700D0B104F00700C0F108007F
:1055C0002044A04210D904F00700C0F108000444B0
:1055D00004F0070008B9012000E0002038B99A2142
:1055E00037A000F089FF02E0002400E00024002C36
:1055F0004BD03D480068844247D83C4E3046056851
:1056000001E02E462D686868A04202D22868002872
:10561000F7D129480068854237D0306800F1080882
:10562000286830606868001B102812D92F1907F00D
:10563000070008B9012000E0002018B9CD2120A002
:1056400000F05AFF6868001B78606C603846FFF70E
:105650009DFC254968680968081A234908600846BE
:10566000006823490968884203D21F48006820491E
:10567000086012496868096808436860002028606B
:105680001C480068401C1B49086002F00FFDB8F17F
:10569000000F01D100F0F6FE08F0070008B9012064
:1056A00000E0002020B94FF4877105A000F024FF2E
:1056B0004046BDE8F0810000DC000020F000002042
:1056C0002E2E5C74686972645F6C69625C667265D8
:1056D0006572746F735C706F727461626C655C6824
:1056E0006561705F342E6300E0000020D40000206C
:1056F000E4000020E80000200648006830B10549B9
:10570000096801F14800896C491C01600148006882
:10571000704700008000002070B50446264624B97A
:1057200040F20A4104A000F0E7FE00F039FFF569FD
:1057300000F070FF284670BD2E2E5C74686972649C
:105740005F6C69625C6672656572746F735C7469C4
:105750006D6572732E630000001F4FF0807303604D
:10576000001F21F001030360001F054B0360143884
:105770000260001F6FF002030360203870470000D2
:105780007D5405081FB5044600BF02A8FDF729FC9B
:105790006846FDF726FC0822694602A8FAF77AFE59
:1057A0000028F2D102982060039860601FBD0EB5FA
:1057B0006846FCF7F3FB6846FCF7F2FA0120FCF7B9
:1057C0002BFAFCF7F9FB0EBD1CB5044600BF2046C2
:1057D000FDF72FFC6846FDF704FCA0799DF8061044
:1057E0008842F4D11CBD000000B58FB06846FBF7BD
:1057F00071FF00200090124801904020039000208B
:1058000005904FF4006007908000089000200990F8
:105810004FF400300A9004200B9003200C904FF0BE
:1058200080700D9000200E90012210210548FBF79A
:1058300007FF69460348FBF721FF0FB000BD0000DA
:105840000C380040706002402DE9FC5F0746884636
:1058500015461E46E81DC11700EB5171C1F3CF017B
:105860000191254C002233E00C99019802FB0019AC
:10587000002029E001464FEAE07A00EB5A7A4FEA2D
:10588000EA0A19F80AA003464FEAE07B00EB5B7BCB
:105890004FEAEB0BA0EBCB0BCBF1070E4FF0010B5C
:1058A0000BFA0EFB0AEA0B0ACDF800A0009909B129
:1058B0000D9900E00E998C4604F801CB4FEA1C21AB
:1058C00004F8011B411C88B2A842D3DB501C82B2F1
:1058D000B242C9DB08EB0600401E83B27819401EB5
:1058E00082B24146384600F0E7F90348211A002207
:1058F00000F0AEFABDE8FC9F2002002070B505461E
:105900000E461446F02D0DDAB6F5A07F0ADA20888F
:105910002844401EF02805DA60883044401CB0F569
:10592000A07F00DB70BD60883044401E83B22088B9
:105930002844401E82B23146284600F0BDF9228834
:1059400063885A4351000022606800F081FA00BF6A
:10595000E8E72DE9F04104460D4616461F463B4652
:10596000324629462046FEF781FA08B9BDE8F081A3
:105970003B4632462946204600F09EF9301B401C2B
:10598000791B491C00FB01F84FEA4801012206A8D7
:1059900000F05EFA00BFE9E710B503220021012004
:1059A00001F008FD094908600846006818B975212A
:1059B00007A000F0A1FD00F0AFF9FFF715FF00F020
:1059C000EBF800F00FF900F011F810BD38000020DE
:1059D0002E2E5C6472697665725C73743737383961
:1059E0005C7374373738392E6300000000B599B006
:1059F00000F046F900221146112000F07DFA052042
:105A000000F024FF50A000681890012218A93A2045
:105A100000F072FA00201790012217A9362000F03A
:105A20006BFA4AA000681690012216A9C52000F062
:105A300063FA47A103C9CDE91401052214A9B220D4
:105A400000F05AFA40A000681390012213A9B72071
:105A500000F052FA40A000681290012212A9BB2067
:105A600000F04AFA3DA000681190012211A9C0205F
:105A700000F042FA3AA000681090012210A9C2205A
:105A800000F03AFA37A000680F9001220FA9C32056
:105A900000F032FA34A000680E9001220EA9C42052
:105AA00000F02AFA2EA000680D9001220DA9C62050
:105AB00000F022FA2DA000680C9002220CA9D02040
:105AC00000F01AFA2AA000680B9001220BA9E82026
:105AD00000F012FA27A000680A9003220AA9E92020
:105AE00000F00AFA24A090E80E00C068CDE9072370
:105AF000069109900E2206A9E02000F0FDF922A3EC
:105B0000D3E90021D3E90203CDE90403CDE9022161
:105B10000E2202A9E12000F0EFF900221146202018
:105B200000F0EAF900221146292000F0E5F90020F2
:105B300040F23F13EF2201460090FFF70AFF0120D9
:105B400000F0B0F819B000BD050000001A00000018
:105B500005050033330000003F0000002C0000006A
:105B6000010000000F00000020000000A4A10000C0
:105B70000300000009090800D005090908142833AA
:105B80003F07131428300000D00509090803243208
:105B9000323B1413282F000038B50F208DF8000079
:105BA00005208DF8010000208DF8020001208DF8FD
:105BB00003006846FBF700FF0F200521002807DAE5
:105BC0000A07140E054A00F00F031B1FD45403E00C
:105BD0000A07130E024A135400BF38BD18ED00E047
